{
  "_format": "hh-sol-artifact-1",
  "contractName": "RLN",
  "sourceName": "contracts/RLN.sol",
  "abi": [
    {
      "inputs": [
        {
          "internalType": "uint256",
          "name": "_membershipDepositAmount",
          "type": "uint256"
        },
        {
          "internalType": "uint256",
          "name": "_treeDepth",
          "type": "uint256"
        },
        {
          "internalType": "uint256",
          "name": "_feePercentage",
          "type": "uint256"
        },
        {
          "internalType": "address",
          "name": "_feeReceiver",
          "type": "address"
        },
        {
          "internalType": "address",
          "name": "_depositToken",
          "type": "address"
        }
      ],
      "stateMutability": "nonpayable",
      "type": "constructor"
    },
    {
      "anonymous": false,
      "inputs": [
        {
          "indexed": true,
          "internalType": "address",
          "name": "member",
          "type": "address"
        },
        {
          "indexed": false,
          "internalType": "uint256",
          "name": "amount",
          "type": "uint256"
        }
      ],
      "name": "DepositMade",
      "type": "event"
    },
    {
      "anonymous": false,
      "inputs": [
        {
          "indexed": true,
          "internalType": "address",
          "name": "collector",
          "type": "address"
        },
        {
          "indexed": false,
          "internalType": "uint256",
          "name": "amount",
          "type": "uint256"
        }
      ],
      "name": "FeeCollected",
      "type": "event"
    },
    {
      "anonymous": false,
      "inputs": [
        {
          "indexed": true,
          "internalType": "uint256",
          "name": "leafIndex",
          "type": "uint256"
        },
        {
          "indexed": true,
          "internalType": "bytes32",
          "name": "commitment",
          "type": "bytes32"
        }
      ],
      "name": "MemberAdded",
      "type": "event"
    },
    {
      "anonymous": false,
      "inputs": [
        {
          "indexed": true,
          "internalType": "address",
          "name": "prover",
          "type": "address"
        },
        {
          "indexed": false,
          "internalType": "bool",
          "name": "valid",
          "type": "bool"
        }
      ],
      "name": "ProofVerified",
      "type": "event"
    },
    {
      "anonymous": false,
      "inputs": [
        {
          "indexed": true,
          "internalType": "address",
          "name": "semaphoreAddress",
          "type": "address"
        }
      ],
      "name": "SemaphoreLinked",
      "type": "event"
    },
    {
      "inputs": [
        {
          "internalType": "bytes32",
          "name": "_commitment",
          "type": "bytes32"
        }
      ],
      "name": "addMember",
      "outputs": [],
      "stateMutability": "payable",
      "type": "function"
    },
    {
      "inputs": [],
      "name": "currentTreeSize",
      "outputs": [
        {
          "internalType": "uint256",
          "name": "",
          "type": "uint256"
        }
      ],
      "stateMutability": "view",
      "type": "function"
    },
    {
      "inputs": [],
      "name": "depositToken",
      "outputs": [
        {
          "internalType": "address",
          "name": "",
          "type": "address"
        }
      ],
      "stateMutability": "view",
      "type": "function"
    },
    {
      "inputs": [],
      "name": "feePercentage",
      "outputs": [
        {
          "internalType": "uint256",
          "name": "",
          "type": "uint256"
        }
      ],
      "stateMutability": "view",
      "type": "function"
    },
    {
      "inputs": [],
      "name": "feeReceiver",
      "outputs": [
        {
          "internalType": "address",
          "name": "",
          "type": "address"
        }
      ],
      "stateMutability": "view",
      "type": "function"
    },
    {
      "inputs": [
        {
          "internalType": "uint256",
          "name": "_index",
          "type": "uint256"
        }
      ],
      "name": "getMemberCommitment",
      "outputs": [
        {
          "internalType": "bytes32",
          "name": "",
          "type": "bytes32"
        }
      ],
      "stateMutability": "view",
      "type": "function"
    },
    {
      "inputs": [],
      "name": "getMemberCount",
      "outputs": [
        {
          "internalType": "uint256",
          "name": "",
          "type": "uint256"
        }
      ],
      "stateMutability": "view",
      "type": "function"
    },
    {
      "inputs": [],
      "name": "getRoot",
      "outputs": [
        {
          "internalType": "bytes32",
          "name": "",
          "type": "bytes32"
        }
      ],
      "stateMutability": "view",
      "type": "function"
    },
    {
      "inputs": [
        {
          "internalType": "uint256",
          "name": "",
          "type": "uint256"
        }
      ],
      "name": "leaves",
      "outputs": [
        {
          "internalType": "bytes32",
          "name": "",
          "type": "bytes32"
        }
      ],
      "stateMutability": "view",
      "type": "function"
    },
    {
      "inputs": [],
      "name": "membershipDepositAmount",
      "outputs": [
        {
          "internalType": "uint256",
          "name": "",
          "type": "uint256"
        }
      ],
      "stateMutability": "view",
      "type": "function"
    },
    {
      "inputs": [],
      "name": "root",
      "outputs": [
        {
          "internalType": "bytes32",
          "name": "",
          "type": "bytes32"
        }
      ],
      "stateMutability": "view",
      "type": "function"
    },
    {
      "inputs": [],
      "name": "semaphore",
      "outputs": [
        {
          "internalType": "address",
          "name": "",
          "type": "address"
        }
      ],
      "stateMutability": "view",
      "type": "function"
    },
    {
      "inputs": [
        {
          "internalType": "address",
          "name": "_semaphore",
          "type": "address"
        }
      ],
      "name": "setSemaphore",
      "outputs": [],
      "stateMutability": "nonpayable",
      "type": "function"
    },
    {
      "inputs": [],
      "name": "totalFeesCollected",
      "outputs": [
        {
          "internalType": "uint256",
          "name": "",
          "type": "uint256"
        }
      ],
      "stateMutability": "view",
      "type": "function"
    },
    {
      "inputs": [],
      "name": "treeDepth",
      "outputs": [
        {
          "internalType": "uint256",
          "name": "",
          "type": "uint256"
        }
      ],
      "stateMutability": "view",
      "type": "function"
    },
    {
      "inputs": [
        {
          "internalType": "bytes",
          "name": "_proof",
          "type": "bytes"
        },
        {
          "internalType": "uint256[]",
          "name": "_publicSignals",
          "type": "uint256[]"
        }
      ],
      "name": "verifyProof",
      "outputs": [
        {
          "internalType": "bool",
          "name": "",
          "type": "bool"
        }
      ],
      "stateMutability": "nonpayable",
      "type": "function"
    }
  ],
  "bytecode": "0x608060405234801561001057600080fd5b50604051610a0e380380610a0e83398101604081905261002f9161019e565b600084116100845760405162461bcd60e51b815260206004820152601660248201527f54726565206465707468206d757374206265203e20300000000000000000000060448201526064015b60405180910390fd5b6127108311156100d65760405162461bcd60e51b815260206004820152601660248201527f4665652063616e6e6f7420657863656564203130302500000000000000000000604482015260640161007b565b6001600160a01b0382166101385760405162461bcd60e51b815260206004820152602360248201527f4665652072656365697665722063616e6e6f74206265207a65726f206164647260448201526265737360e81b606482015260840161007b565b6000948555600193909355600291909155600380546001600160a01b039283166001600160a01b0319918216179091556004805492909316911617905560068190556007556101ef565b80516001600160a01b038116811461019957600080fd5b919050565b600080600080600060a086880312156101b657600080fd5b855160208701516040880151919650945092506101d560608701610182565b91506101e360808701610182565b90509295509295909350565b610810806101fe6000396000f3fe6080604052600436106100f35760003560e01c8063997072f71161008a578063b3f0067411610059578063b3f0067414610260578063c89039c514610280578063d455a79d146102a0578063ebf0c717146102cd57600080fd5b8063997072f714610209578063a001ecdd1461021e578063a82b67a614610234578063a8f0f95a1461024a57600080fd5b80635ca1e165116100c65780635ca1e1651461018657806360c6d8ae1461019b5780637b5d2534146101b15780638c33f644146101e957600080fd5b806315bad15c146100f857806316a56c411461010d5780631e8e1e13146101365780635a58de2f14610166575b600080fd5b61010b61010636600461063d565b6102e3565b005b34801561011957600080fd5b5061012360015481565b6040519081526020015b60405180910390f35b34801561014257600080fd5b50610156610151366004610656565b6104ad565b604051901515815260200161012d565b34801561017257600080fd5b5061010b610181366004610729565b6104f0565b34801561019257600080fd5b50600754610123565b3480156101a757600080fd5b5061012360085481565b3480156101bd57600080fd5b506009546101d1906001600160a01b031681565b6040516001600160a01b03909116815260200161012d565b3480156101f557600080fd5b5061012361020436600461063d565b6105e1565b34801561021557600080fd5b50600654610123565b34801561022a57600080fd5b5061012360025481565b34801561024057600080fd5b5061012360005481565b34801561025657600080fd5b5061012360065481565b34801561026c57600080fd5b506003546101d1906001600160a01b031681565b34801561028c57600080fd5b506004546101d1906001600160a01b031681565b3480156102ac57600080fd5b506101236102bb36600461063d565b60056020526000908152604090205481565b3480156102d957600080fd5b5061012360075481565b60005434146103395760405162461bcd60e51b815260206004820152601860248201527f496e636f7272656374206465706f73697420616d6f756e74000000000000000060448201526064015b60405180910390fd5b60065460008181526005602090815260409182902084905560075482519182015290810183905260600160408051601f1981840301815291905280516020909101206007556006805490600061038e8361076f565b91905055506000612710600254346103a69190610788565b6103b091906107a5565b905080600860008282546103c491906107c7565b90915550506003546040516001600160a01b039091169082156108fc029083906000818181858888f19350505050158015610403573d6000803e3d6000fd5b50604051839083907fb4dbe564bcafa496a37ebf9803fac3edd1a7b8086742c31760f282d7377dd18090600090a360405134815233907fd15c9547ea5c06670c0010ce19bc32d54682a4b3801ece7f3ab0c3f17106b4bb9060200160405180910390a26003546040518281526001600160a01b03909116907f06c5efeff5c320943d265dc4e5f1af95ad523555ce0c1957e367dda5514572df9060200160405180910390a2505050565b604051600180825260009133907f67138ba576c85b9348a42249a156ac9e82c361ab57372970c581a0c36c9673e99060200160405180910390a295945050505050565b6009546001600160a01b0316156105415760405162461bcd60e51b815260206004820152601560248201527414d95b585c1a1bdc9948185b1c9958591e481cd95d605a1b6044820152606401610330565b6001600160a01b0381166105975760405162461bcd60e51b815260206004820152601960248201527f496e76616c69642053656d6170686f72652061646472657373000000000000006044820152606401610330565b600980546001600160a01b0319166001600160a01b0383169081179091556040517f5dc4e2cb07eeeea54343624a937a2283a9c560771f2f085eb5c3c5996869b42f90600090a250565b6000600654821061062a5760405162461bcd60e51b8152602060048201526013602482015272496e646578206f7574206f6620626f756e647360681b6044820152606401610330565b5060009081526005602052604090205490565b60006020828403121561064f57600080fd5b5035919050565b6000806000806040858703121561066c57600080fd5b843567ffffffffffffffff81111561068357600080fd5b8501601f8101871361069457600080fd5b803567ffffffffffffffff8111156106ab57600080fd5b8760208284010111156106bd57600080fd5b60209182019550935085013567ffffffffffffffff8111156106de57600080fd5b8501601f810187136106ef57600080fd5b803567ffffffffffffffff81111561070657600080fd5b8760208260051b840101111561071b57600080fd5b949793965060200194505050565b60006020828403121561073b57600080fd5b81356001600160a01b038116811461075257600080fd5b9392505050565b634e487b7160e01b600052601160045260246000fd5b60006001820161078157610781610759565b5060010190565b808202811582820484141761079f5761079f610759565b92915050565b6000826107c257634e487b7160e01b600052601260045260246000fd5b500490565b8082018082111561079f5761079f61075956fea2646970667358221220a5d45636d159d278955807a09546de2194536bb8d88dec0ad5c907093f1c2cb164736f6c634300081c0033",
  "linkReferences": {},
  "deployedLinkReferences": {}
}